{
  "_format": "hh-sol-artifact-1",
  "contractName": "TipJar",
  "sourceName": "src/contracts/TipJar.sol",
  "abi": [
    {
      "inputs": [],
      "stateMutability": "nonpayable",
      "type": "constructor"
    },
    {
      "anonymous": false,
      "inputs": [
        {
          "indexed": true,
          "internalType": "address",
          "name": "from",
          "type": "address"
        },
        {
          "indexed": false,
          "internalType": "string",
          "name": "message",
          "type": "string"
        },
        {
          "indexed": false,
          "internalType": "string",
          "name": "name",
          "type": "string"
        },
        {
          "indexed": false,
          "internalType": "uint256",
          "name": "amount",
          "type": "uint256"
        }
      ],
      "name": "NewTip",
      "type": "event"
    },
    {
      "anonymous": false,
      "inputs": [
        {
          "indexed": false,
          "internalType": "uint256",
          "name": "",
          "type": "uint256"
        }
      ],
      "name": "NewWithdraw",
      "type": "event"
    },
    {
      "inputs": [],
      "name": "getAllTips",
      "outputs": [
        {
          "components": [
            {
              "internalType": "address",
              "name": "sender",
              "type": "address"
            },
            {
              "internalType": "string",
              "name": "message",
              "type": "string"
            },
            {
              "internalType": "string",
              "name": "name",
              "type": "string"
            },
            {
              "internalType": "uint256",
              "name": "timestamp",
              "type": "uint256"
            },
            {
              "internalType": "uint256",
              "name": "amount",
              "type": "uint256"
            }
          ],
          "internalType": "struct TipJar.Tip[]",
          "name": "",
          "type": "tuple[]"
        }
      ],
      "stateMutability": "view",
      "type": "function"
    },
    {
      "inputs": [
        {
          "internalType": "string",
          "name": "_message",
          "type": "string"
        },
        {
          "internalType": "string",
          "name": "_name",
          "type": "string"
        }
      ],
      "name": "sendTip",
      "outputs": [],
      "stateMutability": "payable",
      "type": "function"
    },
    {
      "inputs": [],
      "name": "totalTips",
      "outputs": [
        {
          "internalType": "uint256",
          "name": "",
          "type": "uint256"
        }
      ],
      "stateMutability": "view",
      "type": "function"
    },
    {
      "inputs": [],
      "name": "withdraw",
      "outputs": [],
      "stateMutability": "nonpayable",
      "type": "function"
    }
  ],
  "bytecode": "0x608060405234801561001057600080fd5b5033600160006101000a81548173ffffffffffffffffffffffffffffffffffffffff021916908373ffffffffffffffffffffffffffffffffffffffff16021790555061108d806100616000396000f3fe60806040526004361061003f5760003560e01c8063399ddbbd146100445780633ccfd60b1461006f57806354cafb0414610086578063990de8ae146100a2575b600080fd5b34801561005057600080fd5b506100596100cd565b6040516100669190610884565b60405180910390f35b34801561007b57600080fd5b506100846102ba565b005b6100a0600480360381019061009b91906109ef565b61049b565b005b3480156100ae57600080fd5b506100b7610655565b6040516100c49190610a76565b60405180910390f35b60606002805480602002602001604051908101604052809291908181526020016000905b828210156102b157838290600052602060002090600502016040518060a00160405290816000820160009054906101000a900473ffffffffffffffffffffffffffffffffffffffff1673ffffffffffffffffffffffffffffffffffffffff1673ffffffffffffffffffffffffffffffffffffffff16815260200160018201805461017a90610ac0565b80601f01602080910402602001604051908101604052809291908181526020018280546101a690610ac0565b80156101f35780601f106101c8576101008083540402835291602001916101f3565b820191906000526020600020905b8154815290600101906020018083116101d657829003601f168201915b5050505050815260200160028201805461020c90610ac0565b80601f016020809104026020016040519081016040528092919081815260200182805461023890610ac0565b80156102855780601f1061025a57610100808354040283529160200191610285565b820191906000526020600020905b81548152906001019060200180831161026857829003601f168201915b5050505050815260200160038201548152602001600482015481525050815260200190600101906100f1565b50505050905090565b3373ffffffffffffffffffffffffffffffffffffffff16600160009054906101000a900473ffffffffffffffffffffffffffffffffffffffff1673ffffffffffffffffffffffffffffffffffffffff161461034a576040517f08c379a000000000000000000000000000000000000000000000000000000000815260040161034190610b4e565b60405180910390fd5b600047905060008111610392576040517f08c379a000000000000000000000000000000000000000000000000000000000815260040161038990610bba565b60405180910390fd5b6000600160009054906101000a900473ffffffffffffffffffffffffffffffffffffffff1673ffffffffffffffffffffffffffffffffffffffff16826040516103da90610c0b565b60006040518083038185875af1925050503d8060008114610417576040519150601f19603f3d011682016040523d82523d6000602084013e61041c565b606091505b5050905080610460576040517f08c379a000000000000000000000000000000000000000000000000000000000815260040161045790610c6c565b60405180910390fd5b7f513127da5c0be50bc9c6763cb35c374fb3aa664ff0a1fad404452ada92b599248260405161048f9190610a76565b60405180910390a15050565b343373ffffffffffffffffffffffffffffffffffffffff163110156104f5576040517f08c379a00000000000000000000000000000000000000000000000000000000081526004016104ec90610cd8565b60405180910390fd5b60016000808282546105079190610d27565b9250508190555060026040518060a001604052803373ffffffffffffffffffffffffffffffffffffffff16815260200184815260200183815260200142815260200134815250908060018154018082558091505060019003906000526020600020906005020160009091909190915060008201518160000160006101000a81548173ffffffffffffffffffffffffffffffffffffffff021916908373ffffffffffffffffffffffffffffffffffffffff16021790555060208201518160010190816105d29190610f07565b5060408201518160020190816105e89190610f07565b50606082015181600301556080820151816004015550503373ffffffffffffffffffffffffffffffffffffffff167fb1c1391b0c6c1e7244a4134896b4bc3f12d2c0cdfef990fac76eec58980a8baa83833460405161064993929190611012565b60405180910390a25050565b60005481565b600081519050919050565b600082825260208201905092915050565b6000819050602082019050919050565b600073ffffffffffffffffffffffffffffffffffffffff82169050919050565b60006106b282610687565b9050919050565b6106c2816106a7565b82525050565b600081519050919050565b600082825260208201905092915050565b60005b838110156107025780820151818401526020810190506106e7565b60008484015250505050565b6000601f19601f8301169050919050565b600061072a826106c8565b61073481856106d3565b93506107448185602086016106e4565b61074d8161070e565b840191505092915050565b6000819050919050565b61076b81610758565b82525050565b600060a08301600083015161078960008601826106b9565b50602083015184820360208601526107a1828261071f565b915050604083015184820360408601526107bb828261071f565b91505060608301516107d06060860182610762565b5060808301516107e36080860182610762565b508091505092915050565b60006107fa8383610771565b905092915050565b6000602082019050919050565b600061081a8261065b565b6108248185610666565b93508360208202850161083685610677565b8060005b85811015610872578484038952815161085385826107ee565b945061085e83610802565b925060208a0199505060018101905061083a565b50829750879550505050505092915050565b6000602082019050818103600083015261089e818461080f565b905092915050565b6000604051905090565b600080fd5b600080fd5b600080fd5b600080fd5b7f4e487b7100000000000000000000000000000000000000000000000000000000600052604160045260246000fd5b6108fc8261070e565b810181811067ffffffffffffffff8211171561091b5761091a6108c4565b5b80604052505050565b600061092e6108a6565b905061093a82826108f3565b919050565b600067ffffffffffffffff82111561095a576109596108c4565b5b6109638261070e565b9050602081019050919050565b82818337600083830152505050565b600061099261098d8461093f565b610924565b9050828152602081018484840111156109ae576109ad6108bf565b5b6109b9848285610970565b509392505050565b600082601f8301126109d6576109d56108ba565b5b81356109e684826020860161097f565b91505092915050565b60008060408385031215610a0657610a056108b0565b5b600083013567ffffffffffffffff811115610a2457610a236108b5565b5b610a30858286016109c1565b925050602083013567ffffffffffffffff811115610a5157610a506108b5565b5b610a5d858286016109c1565b9150509250929050565b610a7081610758565b82525050565b6000602082019050610a8b6000830184610a67565b92915050565b7f4e487b7100000000000000000000000000000000000000000000000000000000600052602260045260246000fd5b60006002820490506001821680610ad857607f821691505b602082108103610aeb57610aea610a91565b5b50919050565b600082825260208201905092915050565b7f63616c6c6572206973206e6f7420746865206f776e6572000000000000000000600082015250565b6000610b38601783610af1565b9150610b4382610b02565b602082019050919050565b60006020820190508181036000830152610b6781610b2b565b9050919050565b7f596f752068617665206e6f20657468657220746f207769746864726177000000600082015250565b6000610ba4601d83610af1565b9150610baf82610b6e565b602082019050919050565b60006020820190508181036000830152610bd381610b97565b9050919050565b600081905092915050565b50565b6000610bf5600083610bda565b9150610c0082610be5565b600082019050919050565b6000610c1682610be8565b9150819050919050565b7f5769746864726177206661696c65640000000000000000000000000000000000600082015250565b6000610c56600f83610af1565b9150610c6182610c20565b602082019050919050565b60006020820190508181036000830152610c8581610c49565b9050919050565b7f4e6f7420656e6f7567682066756e647300000000000000000000000000000000600082015250565b6000610cc2601083610af1565b9150610ccd82610c8c565b602082019050919050565b60006020820190508181036000830152610cf181610cb5565b9050919050565b7f4e487b7100000000000000000000000000000000000000000000000000000000600052601160045260246000fd5b6000610d3282610758565b9150610d3d83610758565b9250828201905080821115610d5557610d54610cf8565b5b92915050565b60008190508160005260206000209050919050565b60006020601f8301049050919050565b600082821b905092915050565b600060088302610dbd7fffffffffffffffffffffffffffffffffffffffffffffffffffffffffffffffff82610d80565b610dc78683610d80565b95508019841693508086168417925050509392505050565b6000819050919050565b6000610e04610dff610dfa84610758565b610ddf565b610758565b9050919050565b6000819050919050565b610e1e83610de9565b610e32610e2a82610e0b565b848454610d8d565b825550505050565b600090565b610e47610e3a565b610e52818484610e15565b505050565b5b81811015610e7657610e6b600082610e3f565b600181019050610e58565b5050565b601f821115610ebb57610e8c81610d5b565b610e9584610d70565b81016020851015610ea4578190505b610eb8610eb085610d70565b830182610e57565b50505b505050565b600082821c905092915050565b6000610ede60001984600802610ec0565b1980831691505092915050565b6000610ef78383610ecd565b9150826002028217905092915050565b610f10826106c8565b67ffffffffffffffff811115610f2957610f286108c4565b5b610f338254610ac0565b610f3e828285610e7a565b600060209050601f831160018114610f715760008415610f5f578287015190505b610f698582610eeb565b865550610fd1565b601f198416610f7f86610d5b565b60005b82811015610fa757848901518255600182019150602085019450602081019050610f82565b86831015610fc45784890151610fc0601f891682610ecd565b8355505b6001600288020188555050505b505050505050565b6000610fe4826106c8565b610fee8185610af1565b9350610ffe8185602086016106e4565b6110078161070e565b840191505092915050565b6000606082019050818103600083015261102c8186610fd9565b905081810360208301526110408185610fd9565b905061104f6040830184610a67565b94935050505056fea2646970667358221220dec698f50c59a309069a54e2c04ef14f493ae3a96e145932a86b6d0b50a724ad64736f6c63430008110033",
  "linkReferences": {},
  "deployedLinkReferences": {}
}